:100000000C9492000C94BA000C94BA000C94BA00B0
:100010000C94BA000C94BA000C94BA000C94BA0078
:100020000C94BA000C94BA000C94BA000C94BA0068
:100030000C94BA000C94BA000C94BA000C94BA0058
:100040000C9426050C94BA000C9496050C9470053B
:100050000C94BA000C94BA000C94BA000C94BA0038
:100060000C9415030C94BA0025202063617461730D
:1000700074726F7068653A2000C2B043200025207A
:1000800020547269676765722054656D706572618E
:10009000747572653A2000C2B043200025202050BC
:1000A00065616B2054656D70657261747572653A37
:1000B0002000C2B043200025202054656D70657279
:1000C00061747572653A200000000000240027006A
:1000D0002A0000000000250028002B000000000876
:1000E00000020100000304070000000000000000FF
:1000F0000000000023002600290004040404040476
:1001000004040202020202020303030303030102C6
:100110000408102040800102040810200102040895
:1001200010207D0E11241FBECFEFD8E0DEBFCDBF63
:1001300023E0A2E4B1E001C01D92AF34B207E1F7C1
:1001400011E0A0E0B1E0E4E4F3E202C005900D921A
:10015000A234B107D9F710E0C2E9D0E004C021977A
:10016000FE010E94EF10C139D107C9F70E94FA0AB7
:100170000C94A0110C94000085ED8093BC0080913C
:10018000BC0084FDFCCF1092E401089540917701FA
:10019000262F30E0240F311D21323105DCF420916F
:1001A000E4012430C9F4FC0180E090E0861758F4A3
:1001B000309177012191DC01AB5ABE4FA30FB11DE5
:1001C0002C930196F3CF80917701680F60937701AC
:1001D00080E0089581E0089582E0089508950895EB
:1001E0000895E0919D0180919C01E81730F4F0E0C2
:1001F000E256FE4F808190E008958FEF9FEF0895C3
:1002000090919D0180919C01981750F4E92FF0E0A6
:10021000E256FE4F208130E09F5F90939D0102C027
:100220002FEF3FEFC901089580919C0190E020914C
:100230009D01821B91090895CF92DF92EF92FF9268
:100240000F931F93CF93DF937C01CB018A01209101
:10025000E501222389F0EB016B01C40ED51ECC15FC
:10026000DD0569F06991D701ED91FC910190F08174
:10027000E02DC7010995F3CF642F0E94C600C80185
:10028000DF91CF911F910F91FF90EF90DF90CF9072
:100290000895CF93DF931F92CDB7DEB76983209186
:1002A000E5012223D1F020910802203240F021E024
:1002B00030E0FC013383228380E090E015C0809120
:1002C000E601E82FF0E0E951FE4F998190838F5FBE
:1002D0008093E6018093080205C061E0CE0101969B
:1002E0000E94C60081E090E00F90DF91CF910895C9
:1002F000833081F028F4813099F08230A1F00895A4
:100300008730A9F08830B9F08430D1F48091800032
:100310008F7D03C0809180008F7780938000089547
:1003200084B58F7702C084B58F7D84BD0895809198
:10033000B0008F7703C08091B0008F7D8093B000B4
:100340000895CF93DF93282F30E0F901E452FF4F57
:100350008491F901E25FFE4FD491F901E650FF4F1D
:10036000C491CC2391F081110E947801EC2FF0E030
:10037000EE0FFF1FE051FF4FA591B491EC91ED23DB
:1003800081E090E021F480E002C080E090E0DF9125
:10039000CF9108953FB7F894809151019091520107
:1003A000A0915301B091540126B5A89B05C02F3FE1
:1003B00019F00196A11DB11D3FBFBA2FA92F982F8B
:1003C0008827820F911DA11DB11DBC01CD0142E006
:1003D000660F771F881F991F4A95D1F70895CF920E
:1003E000DF92EF92FF920F931F93CF93DF936C01F5
:1003F0007A018B01C0E0D0E0CE15DF0581F0D80195
:100400006D918D01D601ED91FC910190F081E02D6F
:10041000C6010995892B11F02196EECF7E01C70107
:10042000DF91CF911F910F91FF90EF90DF90CF90D0
:100430000895089580E090E00895FC01538D448D67
:10044000252F30E0842F90E0821B930B541710F07F
:10045000CF96089501970895FC01918D828D98178C
:1004600061F0828DDF01A80FB11D5D968C91928D98
:100470009F5F9F73928F90E008958FEF9FEF089595
:10048000FC01918D828D981731F0828DE80FF11D5E
:10049000858D90E008958FEF9FEF0895FC01918D79
:1004A000228D892F90E0805C9F4F821B91098F7372
:1004B0009927089585E192E00E944E0221E0892B60
:1004C00009F420E0822F0895FC01848DDF01A80F3C
:1004D000B11DA35ABF4F2C91848D90E001968F736C
:1004E0009927848FA689B7892C93A089B1898C918B
:1004F000837080648C93938D848D981306C00288DA
:10050000F389E02D80818F7D80830895EF92FF92A3
:100510000F931F93CF93DF93EC0181E0888F9B8D26
:100520008C8D981305C0E889F989808185FD26C0E6
:10053000F62E0B8D10E00F5F1F4F0F731127E02E6B
:100540008C8DE8120CC00FB607FCFACFE889F98948
:10055000808185FFF5CFCE010E946402F1CF8B8DA3
:10056000FE01E80FF11DE35AFF4FF0829FB7F894A8
:100570000B8FEA89FB89808180620AC09FB7F8945B
:10058000EE89FF896083E889F989808183708064BE
:1005900080839FBF81E090E0DF91CF911F910F9109
:1005A000FF90EF900895CF93DF93EC01888D88231F
:1005B000C9F0EA89FB89808185FD05C0A889B989D0
:1005C0008C9186FD0FC00FB607FCF5CF808185FFAB
:1005D000F2CFA889B9898C9185FFEDCFCE010E9419
:1005E0006402E7CFDF91CF91089580E090E0892BFE
:1005F00029F00E945A0281110C94000008950E9473
:100600009B111F93CF93DF93EC01162F0E949D1037
:10061000181739F0612FCE01DF91CF911F910C9403
:10062000A510DF91CF911F9108951F920F920FB6E1
:100630000F9211242F933F934F935F936F937F9368
:100640008F939F93AF93BF93EF93FF938091B900E4
:10065000887F803609F49CC068F5883209F45BC055
:1006600090F4803109F454C038F4882309F4F6C0BA
:10067000883009F44DC0F6C0883109F44CC080328E
:1006800009F45DC0EFC0803409F468C048F48033D9
:1006900009F455C0883309F0E5C08093E201D8C061
:1006A000803509F44FC0883509F45DC0883409F0FD
:1006B000D9C0D6C0883909F4C7C0A8F4883709F46E
:1006C00067C038F4883609F463C0803709F460C025
:1006D000C9C0883809F4B8C0803909F45FC08038CF
:1006E00009F0C0C05BC0803B09F486C038F4803A92
:1006F00009F466C0883A09F47FC0B4C0803C09F4AC
:10070000A7C0883C09F4A4C0883B09F48AC0AAC0E9
:100710008091BF0110C09091E1018091E001981794
:1007200070F5E091E10181E08E0F8093E101F0E04E
:10073000E054FE4F80818093BB0085EC86C080939F
:10074000E2018EC0E091E10181E08E0F8093E10132
:100750008091BB00F0E0E054FE4F80839091E10176
:100760008091E0016EC0E091E10181E08E0F809305
:10077000E1018091BB00F0E0E054FE4F8083809166
:10078000E30181116DC081E08093BE0184EA61C004
:1007900083E08093E40110929B01CFCF80919B0175
:1007A000803208F051C0E0919B0181E08E0F809370
:1007B0009B018091BB00F0E0E558FE4F8083BDCFE8
:1007C00085EC8093BC001092E40180919B01803203
:1007D00030F4E0919B01F0E0E558FE4F108260910B
:1007E0009B0170E0E0917901F0917A018BE791E053
:1007F000099510929B0136C084E08093E401109229
:10080000780110927701E0917501F09176010995D8
:1008100080917701811105C081E08093770110926A
:100820005501E091780181E08E0F80937801F0E02E
:10083000EB5AFE4F80818093BB00909178018091AC
:100840007701981708F479CF85E88093BC000AC037
:1008500085EC8093BC001092E40104C01092E20188
:100860000E94BC00FF91EF91BF91AF919F918F913A
:100870007F916F915F914F913F912F910F900FBE9C
:100880000F901F9018951F93CF93DF93282F30E080
:10089000F901E452FF4F8491F901E25FFE4FD491D8
:1008A000F901E650FF4FC491CC23C1F0162F8111FE
:1008B0000E947801EC2FF0E0EE0FFF1FEE52FF4F89
:1008C000A591B4919FB7F894111104C08C91D09563
:1008D000D82302C0EC91DE2BDC939FBFDF91CF9138
:1008E0001F91089510929D0110929C011092E601B3
:1008F000109208021092E40181E08093E3011092CB
:10090000BE0161E082E10E94430461E083E10E9454
:100910004304E9EBF0E080818E7F808380818D7FCE
:10092000808388E48093B80085E48093BC008EEED9
:1009300090E090937601809375018FEE90E0909314
:100940007A01809379010895CF93DF9390E0FC01C1
:10095000E25FFE4F2491FC01E650FF4F8491882313
:1009600061F190E0880F991FFC01E853FF4FC5919A
:10097000D491FC01EE52FF4FA591B491611109C0D1
:100980009FB7F8948881209582238883EC912E2349
:100990000BC0623061F49FB7F8948881322F309594
:1009A00083238883EC912E2B2C939FBF06C08FB797
:1009B000F894E8812E2B28838FBFDF91CF91089583
:1009C0008F929F92AF92BF92CF92DF92EF92FF925F
:1009D0006B017C010E94CA014B015C01C114D1046E
:1009E000E104F104F1F00E94CA01DC01CB01881995
:1009F0009909AA09BB09883E9340A105B10570F386
:100A000021E0C21AD108E108F10888EE880E83E0DF
:100A1000981EA11CB11CC114D104E104F10419F702
:100A2000DDCFFF90EF90DF90CF90BF90AF909F9081
:100A30008F9008952FB7F89460914D0170914E01F9
:100A400080914F01909150012FBF08951F920F92F6
:100A50000FB60F9211242F933F938F939F93AF93D1
:100A6000BF9380914D0190914E01A0914F01B091A3
:100A7000500130914C0123E0230F2D3720F40196D3
:100A8000A11DB11D05C026E8230F0296A11DB11DB1
:100A900020934C0180934D0190934E01A0934F0100
:100AA000B09350018091510190915201A091530156
:100AB000B09154010196A11DB11D809351019093F5
:100AC0005201A0935301B0935401BF91AF919F91F4
:100AD0008F913F912F910F900FBE0F901F901895FF
:100AE0001F920F920FB60F9211242F933F934F93A3
:100AF0005F936F937F938F939F93AF93BF93EF9386
:100B0000FF9385E192E00E946402FF91EF91BF9113
:100B1000AF919F918F917F916F915F914F913F9195
:100B20002F910F900FBE0F901F9018951F920F924C
:100B30000FB60F9211242F938F939F93EF93FF93F0
:100B4000E0912502F09126028081E0912B02F09144
:100B50002C0282FD12C0908180912E028F5F8F73D4
:100B600020912F02821751F0E0912E02F0E0EB5E0F
:100B7000FD4F958F80932E0201C08081FF91EF91F0
:100B80009F918F912F910F900FBE0F901F901895EE
:100B9000CF93C42FFC01808191E09093E501809375
:100BA00007021092E6011092080289E092E00E948A
:100BB00049016C2F89E092E00E94490181E0CF91C8
:100BC0000C9412080F931F93CF93DF93042FD52F0C
:100BD000122FC32FFC01808191E09093E501809357
:100BE00007021092E60110920802F4E06F9FB00134
:100BF00011246A5F7F4F89E092E00E944901802FB3
:100C00009D2F0E946E088D2F90E00E946E08812F0C
:100C10009C2F0E946E088C2F90E00E946E0881E04D
:100C2000DF91CF911F910F910C94120820E030E0DA
:100C300040E050E0CD960C94E2059A01CD96211546
:100C400040E1340728F020E030E040E050E102C00D
:100C500040E050E00C94E205CF93DF93EC016D810E
:100C60008D859E850E9416066E818D859E850E94CB
:100C7000160668858D859E850E94160669858D8578
:100C80009E850E94160640E050E06C818D859E8511
:100C90000E941D0640E050E06F818D859E85DF91AA
:100CA000CF910C941D06CF92DF92EF92FF92CF93DB
:100CB000DF93B0914303882311F0AB2F01C0A0E074
:100CC0008091440390E0880F991F80519F4FC090FE
:100CD0004903D0904A03E0904B03F0904C0320E08E
:100CE00030E0FC01C591D491E881EB23A90160E0DB
:100CF00070E0EA130CC02F5F3F4F4C155D056E0589
:100D00007F0578F33FEF2FEF8FEF9FEF03C0322F78
:100D1000252FCB01632F722FDF91CF91FF90EF90A2
:100D2000DF90CF900895CF92DF92EF92FF92CF9312
:100D3000809142038C3009F446C018F48B30D1F016
:100D400062C08551823008F05EC0C0913E036C2FB6
:100D50006F7770E0762F662780913F03682B80E0E5
:100D600090E00E947E0F2DEC3CEC4CEC5DE30E9489
:100D7000DF0F45C060913E0370E080E090E00E948C
:100D80007E0F6B017C01C0913F03C7FF0AC09B012E
:100D9000AC0160E070E080E89FEB0E94F5106B0111
:100DA0007C016C2F6F7070E080E090E00E94800FFB
:100DB0002DEC3CEC4CEC5DE30E94DF0FA7019601AB
:100DC0000E94F61024C0C0913E036C2F70E080E0BA
:100DD00090E00E947E0F6B017C0160913F036F7079
:100DE00070E080E090E00E94800F2DEC3CEC4CEC39
:100DF0005DE30E94DF0FA70196010E94F610C7FF76
:100E000006C0905804C060E070E080EC9FE7CF918E
:100E1000FF90EF90DF90CF900895CF92DF92EF9206
:100E2000FF920F931F93CF93DF93CDB7DEB7C054DC
:100E3000D1400FB6F894DEBF0FBECDBF0E941A0599
:100E400000914503109146032091470330914803D8
:100E50006B017C01C01AD10AE20AF30A40EDC41604
:100E600047E0D406E104F10418F480914D03CAC0B0
:100E70006093450370934603809347039093480320
:100E80001092400310923F0310923E0310923D03D4
:100E900010923C0362E0809141030E94A40461E04F
:100EA00070E080E090E00E94E00461E08091410306
:100EB0000E94A40460E0809141030E944304809159
:100EC00042038551823028F48BE291E10197F1F7DA
:100ED00006C064E170E080E090E00E94E00462E01F
:100EE000809141030E94A40480914E0390E08230DF
:100EF000910538F0880F991F880F991F0597019762
:100F0000F1F7F89480E00E9453066F3F7F4F8F4FB8
:100F10009F4F21F410924D03789441C081E00E94CC
:100F200053066F3F7F4F8F4F9F4FA1F38E010F5F8F
:100F30001F4F6E012FEBC21A2EEFD20A780180E00C
:100F40000E945306F701608371838283938381E05B
:100F50000E945306F7016483758386839783F8E0C4
:100F6000EF0EF11CEC14FD0451F7789420E030E012
:100F7000F801C080D180E280F38044815581668190
:100F80007781FFEFCF16DF06EF06FF0631F04F3F08
:100F90008FEF58076807780721F410924D0380E01F
:100FA00031C0F90183E0F595E7958A95E1F7E45CB6
:100FB000FC4F8081880FC416D506E606F70608F4B4
:100FC000816080832F5F3F4F085F1F4F28323105BC
:100FD00079F62091400330E040913C0380913D033D
:100FE00090E0840F911D40913E03840F911D40912C
:100FF0003F03840F911D99272817390771F681E067
:1010000080934D03C05CDE4F0FB6F894DEBF0FBE79
:10101000CDBFDF91CF911F910F91FF90EF90DF90A7
:10102000CF900895282F30910802313208F04AC03D
:101030008091E4018111FCCF9091070242E040933E
:10104000E4012093E3012FEF2093E2011092E101EC
:101050003093E001E7EEF1E0A0ECB1E020E03217E0
:1010600021F041914D932F5FFACF1092BF01209153
:10107000BF01990F922B9093BF019091BE019130C7
:1010800061F41092BE019091BF019093BB009091CA
:10109000BC0093FDF8CF95EC01C095EE9093BC0099
:1010A0009091E4019230E1F39091E2019F3F79F059
:1010B0008091E201803241F08091E201803331F091
:1010C00084E005C081E003C082E001C083E01092AB
:1010D000E601109208021092E5010895682F89E058
:1010E00092E00C9449010F931F93CF93DF938C01EF
:1010F00089E092E0F801918380830E947204E80104
:10110000ED9689E092E00E94720440E060E0CE013A
:101110000E94C80580E496E0F8019483838385AD3E
:1011200091E09093E501809307021092E6011092FE
:10113000080260E089E092E00E94490181E00E949B
:101140001208F80185AD9091E4019111FCCF91E076
:101150009093E4019093E3012FEF2093E20110922A
:10116000E1011092E0019093BF019091BF01880FBF
:10117000892B8093BF018091BE01813061F4109270
:10118000BE018091BF018093BB008091BC0083FDB4
:10119000F8CF85EC01C085EE8093BC008091E4011E
:1011A0008130E1F38091E101811103C09091E1016F
:1011B00001C091E0E0ECF1E0AEE9B1E080E0891738
:1011C00021F021912D938F5FFACF10929D01809392
:1011D0009C0189E092E00E940001182F482F4F7671
:1011E000406160E0CE010E94C80543E06EEFCE0191
:1011F0000E94C805412F60E0CE010E94C80565E04D
:1012000070E080E090E00E94E004412F416A60E0DD
:10121000CE010E94C80510E020E030E040E050E040
:10122000612FCE010E94E2051F5F1031A9F7DF9107
:10123000CF911F910F9108951F93CF93DF93EC01EE
:101240008C85613011F4885F01C088508C878C8553
:101250008F738C8740EF5FE06C818D859E850E9447
:101260001D0640EF5FE06F818D859E850E941D0603
:10127000EC85E695E695E695E83028F4F0E0E95F40
:10128000FE4F108101C010E08D859E8510FF09C0C2
:1012900020E030E040E050E16E81CD960E94E20512
:1012A00003C06E810E9416068D859E8511FF09C0C0
:1012B00020E030E040E050E16885CD960E94E205F4
:1012C00003C068850E9416068D859E8512FF09C0A1
:1012D00020E030E040E050E16D81CD960E94E205D3
:1012E00003C06D810E9416068D859E8513FF09C07F
:1012F00020E030E040E050E16985CD960E94E205B3
:1013000003C069850E9416068C85DF91CF911F91DD
:101310000895009769F0FC0101900020E9F73197EA
:10132000AF01481B590BBC0185E192E00C94EF0121
:1013300080E090E008958F929F92AF92BF920F93BA
:101340001F93CF93DF93CDB7DEB7A1970FB6F89475
:10135000DEBF0FBECDBF19A2423008F44AE08E01B5
:101360000F5D1F4F842E912CA12CB12CA50194014F
:101370000E94CD10E62FB901CA0101501109EA30CF
:1013800014F4E05D01C0E95CD801EC93232B242B1D
:10139000252B61F7C8010E948909A1960FB6F89420
:1013A000DEBF0FBECDBFDF91CF911F910F91BF90D8
:1013B000AF909F908F9008950F931F93CF93DF93DB
:1013C0008C01C0E0D0E0F801EC0FFD1F64916623B2
:1013D00041F085E192E00E948602892B11F021966E
:1013E000F2CFCE01DF91CF911F910F9108954F92CF
:1013F0005F926F927F928F929F92AF92BF92CF92A5
:10140000DF92EF92FF926B017C019B01AC010E9485
:101410009611882319F086E391E027C04601570111
:10142000E894B7F82FEF3FEF4FE75FE7C501B4014E
:101430000E94961181110DC02FEF3FEF4FE75FE73C
:10144000C501B4010E94790F18161CF48AE391E0DB
:101450000CC02FEF3FEF4FE75FE4C701B6010E94DA
:101460009111181684F48EE391E0FF90EF90DF90D5
:10147000CF90BF90AF909F908F907F906F905F9034
:101480004F900C9489092FEF3FEF4FE75FECC701B6
:10149000B6010E94790F87FDE6CF20E030E0A90178
:1014A000C701B6010E94790F87FF0BC06DE285E18D
:1014B00092E00E9486025C01F7FAF094F7F8F0944B
:1014C00002C0A12CB12C2AE037ED43EA5BE3C7014F
:1014D000B6010E94F6102B013C010E9462116B01C3
:1014E0007C010E947E0F9B01AC01C301B2010E94EE
:1014F000F5102B013C014AE0C701B6010E949B098F
:101500007C01EA0CFB1C6EE285E192E00E948602FF
:10151000E80EF91E20E030E040E251E4C301B201E0
:101520000E94DF0F2B013C010E9462114B01A12C94
:10153000B12C4AE0C501B4010E949B09E80EF91ED6
:10154000C501B4010E947E0F9B01AC01C301B20131
:101550000E94F51020E030E040E251E40E94DF0FED
:101560000E94621180E090E04AE00E949B098E0D8B
:101570009F1DFF90EF90DF90CF90BF90AF909F9016
:101580008F907F906F905F904F9008950F931F936F
:101590000E941A0560931D0270931E0280931F0221
:1015A0009093200285E192E00E94400297FF1FC0C5
:1015B0000E941A0500911D0210911E0220911F0227
:1015C00030912002DC01CB01801B910BA20BB30BED
:1015D0000091190210911A0220911B0230911C02F5
:1015E00080179107A207B307E8F28FEF9FEF1F91D3
:1015F0000F910895789484B5826084BD84B581602C
:1016000084BD85B5826085BD85B5816085BD8091CD
:101610006E00816080936E00109281008091810045
:10162000826080938100809181008160809381003D
:10163000809180008160809380008091B1008460FF
:101640008093B1008091B00081608093B000809160
:101650007A00846080937A0080917A00826080931F
:101660007A0080917A00816080937A0080917A007C
:10167000806880937A001092C100E0912502F09179
:10168000260282E08083E0912102F0912202108202
:10169000E0912302F091240280E1808310922D02D8
:1016A000E0912902F0912A0286E08083E0912702EE
:1016B000F0912802808180618083E0912702F0917F
:1016C0002802808188608083E0912702F0912802BF
:1016D000808180688083E0912702F09128028081D8
:1016E0008F7D80838EEF92E00E94730880EC92E001
:1016F0000E947308C091BE02D091BF022A853B852B
:10170000A8ECB0E00E94BE109B01AC01C12C97E890
:10171000D92E93E9E92E93E0F92EC701B6010E9474
:10172000CD10288339834A835B83C091BC02D0915A
:10173000BD022A853B85A8ECB0E00E94BE109B014B
:10174000AC01C701B6010E94CD10288339834A83BA
:101750005B8361E085E00E94A40461E083E00E9475
:10176000A40461E082E00E94A40461E08BE00E9496
:10177000A40460E085E00E94430460E083E00E94EE
:10178000430461E082E00E94430461E08BE00E9438
:10179000430460E086E00E94A40462E0809141037B
:1017A0000E94A4040E941A05DC01CB01805D9740D1
:1017B000A109B1098093450390934603A093470381
:1017C000B093480387E380934E03882483942EE6E6
:1017D000922EC2E0D0E001E010E033E0A32EB12C65
:1017E0000E941A056B017C018091B2029091B302B4
:1017F000092E000CAA0BBB0BC816D906EA06FB067D
:10180000D9F00E941A05C090B202D090B3020D2CFC
:10181000000CEE08FF08DC01CB018C199D09AE0914
:10182000BF09813D9740A105B10508F450C08091E2
:101830004B0181114CC010C00E941A05A7019601EE
:10184000261B370B480B590BDA01C901813D974024
:10185000A105B10560F73BC08091490190914A0113
:10186000892BA9F50E940D07882309F4E1C10E9484
:1018700093066B017C01C092B402D092B502E09253
:10188000B602F092B702A7019601609145017091EE
:10189000460180914701909148010E94790F87FF8E
:1018A00008C0C0924501D0924601E0924701F092F3
:1018B0004801A70196016091030170910401809194
:1018C0000501909106010E94790F87FD96C185E17F
:1018D00092E00E944E020297F4F085E192E00E94AD
:1018E0002C028093020185E192E00E942C020E946A
:1018F000C60AFC0197FD08C08D32910509F49FC10D
:10190000C0970A9780F79BC1C12CD12C7601D09249
:101910000101C092000180910201833669F41092A6
:10192000BB021092BA021092B9021092B80260E0A3
:1019300080E090E00E94010380910201823721F44F
:1019400080924B0190920201809102018D3661F4E8
:1019500060910001809101016093B8028093B90207
:1019600080E090E00E94010380914B01882309F4FC
:101970005FC0809142019091430181309105A1F1B6
:101980001CF4892B39F097C082309105E9F1039757
:10199000D9F191C086E00E94A101019701F562E0B2
:1019A0008091BE029091BF020E941C0962E080916A
:1019B000BC029091BD020E941C098091BA029091D4
:1019C000BB0201979093BB028093BA0288379C4E6A
:1019D0000CF071C0B0924301A09242016CC0109310
:1019E00043010093420167C086E00E94A101892B58
:1019F00031F461E08091BE029091BF022FC0D0937C
:101A00004301C093420157C010924B011092BB0298
:101A10001092BA021092B9021092B80260E080E00F
:101A200090E00E940103109243011092420143C0D2
:101A30002091B8023091B9028091BA029091BB0214
:101A4000281B390B30934A01209349018091BE0233
:101A50009091BF021216130684F461E00E941C09E3
:101A600061E08091BC029091BD020E941C098091AE
:101A7000BA029091BB02019611C0232BA1F062E043
:101A80000E941C0962E08091BC029091BD020E94FC
:101A90001C098091BA029091BB0201979093BB02FE
:101AA0008093BA0208C00E942C068091BC029091DB
:101AB000BD020E942C06809102018C36E1F48091D7
:101AC000000190910101009731F460E085E00E94EF
:101AD000430460E00CC08130910529F461E085E0A9
:101AE0000E94430453C0029709F072C061E083E092
:101AF0000E9443046DC0843709F048C087EB90E032
:101B00000E94DC096091B4027091B5028091B60226
:101B10009091B7020E94F70982EB90E00E94DC09E5
:101B20008CE990E00E94DC096091450170914601CA
:101B300080914701909148010E94F70987E990E060
:101B40000E94DC098EE790E00E94DC0960910301AD
:101B50007091040180910501909106010E94F7099E
:101B600089E790E00E94DC0988E690E00E94DC09A9
:101B70006091440170E080E090E04AE00E949B099F
:101B800083E391E00E948909909202018091020111
:101B90008337F1F41092440161E082E00E94430433
:101BA00061E08BE00E9443046091000170910101AB
:101BB000072E000C880B990B0E94800F6093030185
:101BC00070930401809305019093060190920201A5
:101BD00080910201803771F4F09000018F2D0E94F6
:101BE000A10161E0892B09F060E08F2D0E94430480
:101BF000909202010E94F502F3CDA7019601C70160
:101C0000B6010E949611811162CE8092440160E07B
:101C100082E00E94430460E08BE00E94430460E0A5
:101C200085E00E94430460E083E00E9443044FCEBD
:101C3000C12CD12C80ECE82E8FE7F82E1CCEC12CC5
:101C4000D12C7601712CE130F105E9F0ED32F1058E
:101C5000C1F0CF01C0970A97B0F4AAE0B0E0A701A5
:101C600096010E94B3106F01FF0FEE08FF08C60E29
:101C7000D71EE81EF91E40E3C41AD108E108F10896
:101C800002C07724739485E192E00E942C020E94A6
:101C9000C60AFC01C0970A97B0F2E130F10599F24B
:101CA000772009F434CEF094E094D094C094C11C11
:101CB000D11CE11CF11C2BCEFC01DC0115964D96CC
:101CC00014961C921E92139715961C9215971296B5
:101CD0001C92129711961C9211971C921696A81797
:101CE000B90771F711A614A610A617A211AE14AE6B
:101CF00010AE17AA628365AF0895CF9310920C02BD
:101D000010920B0288EE93E0A0E0B0E080930D0209
:101D100090930E02A0930F02B093100223E131E0E2
:101D200030930A02209309021092180210921702AF
:101D30008093190290931A02A0931B02B0931C0285
:101D400085E291E0909316028093150285EC90E075
:101D5000909322028093210284EC90E090932402DD
:101D60008093230280EC90E09093260280932502DA
:101D700081EC90E0909328028093270282EC90E01F
:101D800090932A028093290286EC90E090932C0293
:101D900080932B0210922E0210922F02109230028A
:101DA00010923102C8E0C093410386E18093420360
:101DB000E6E1F1E0E491E0934303E2E0F1E0E49155
:101DC000E093440380E89EE3A0E0B0E08093490301
:101DD00090934A03A0934B03B0934C0360E68EEFBD
:101DE00092E00E945C0E61E680EC92E00E945C0E44
:101DF00080912A0381111FC010922A0388EC90E081
:101E000090932603809325038EEF92E0909329030D
:101E100080932803C0931F038DE0809322038AE000
:101E20008093200389E0809321038BE08093230338
:101E30008CE0809324038BE193E09093BF02809326
:101E4000BE0280913A03811121C081E080933A0360
:101E500088EC90E090933603809335038EEF92E008
:101E6000909339038093380382E080932F0387E0B7
:101E70008093320384E08093300383E080933103C6
:101E800085E08093330386E0809334038BE293E014
:101E90009093BD028093BC0280E090E00E949D1070
:101EA00090E09093BB028093BA0280E090E00E94A1
:101EB0009D1090E09093B9028093B8020E940D07A4
:101EC000882319F00E94930604C060E070E080EC63
:101ED0009FE76093B4027093B5028093B60290932B
:101EE000B7020E941A057093B3026093B202CF91B9
:101EF00008950E94BB0F08F481E00895E89409C09A
:101F000097FB3EF490958095709561957F4F8F4F2C
:101F10009F4F9923A9F0F92F96E9BB279395F69542
:101F2000879577956795B795F111F8CFFAF4BB0FC0
:101F300011F460FF1BC06F5F7F4F8F4F9F4F16C024
:101F4000882311F096E911C0772321F09EE8872FAE
:101F5000762F05C0662371F096E8862F70E060E06A
:101F60002AF09A95660F771F881FDAF7880F9695E3
:101F7000879597F90895990F0008550FAA0BE0E887
:101F8000FEEF16161706E807F907C0F0121613063B
:101F9000E407F50798F0621B730B840B950B39F47B
:101FA0000A2661F0232B242B252B21F408950A26E1
:101FB00009F4A140A6958FEF811D811D08950E940F
:101FC000F20F0C9463100E94551038F00E945C10C0
:101FD00020F0952311F00C944C100C945210112405
:101FE0000C9497100E94741070F3959FC1F3950F95
:101FF00050E0551F629FF001729FBB27F00DB11D8D
:10200000639FAA27F00DB11DAA1F649F6627B00D1C
:10201000A11D661F829F2227B00DA11D621F739F05
:10202000B00DA11D621F839FA00D611D221F749F13
:102030003327A00D611D231F849F600D211D822F5A
:10204000762F6A2F11249F5750409AF0F1F0882381
:102050004AF0EE0FFF1FBB1F661F771F881F9150AE
:102060005040A9F79E3F510580F00C944C100C9401
:1020700097105F3FE4F3983ED4F386957795679584
:10208000B795F795E7959F5FC1F7FE2B880F911DD8
:102090009695879597F9089597F99F6780E870E07E
:1020A00060E008959FEF80EC089500240A941616CE
:1020B000170618060906089500240A941216130636
:1020C000140605060895092E0394000C11F48823C4
:1020D00052F0BB0F40F4BF2B11F460FF04C06F5FE0
:1020E0007F4F8F4F9F4F089557FD9058440F551FB6
:1020F00059F05F3F71F04795880F97FB991F61F08A
:102100009F3F79F087950895121613061406551F00
:10211000F2CF4695F1DF08C0161617061806991F6C
:10212000F1CF86957105610508940895E894BB2761
:1021300066277727CB0197F90895F999FECF92BDCD
:1021400081BDF89A992780B50895262FF999FECF79
:102150001FBA92BD81BD20BD0FB6F894FA9AF99AC4
:102160000FBE019608950E94BE10A59F900DB49FCA
:10217000900DA49F800D911D11240895A29FB00180
:10218000B39FC001A39F700D811D1124911DB29FAB
:10219000700D811D1124911D0895A1E21A2EAA1B14
:1021A000BB1BFD010DC0AA1FBB1FEE1FFF1FA21707
:1021B000B307E407F50720F0A21BB30BE40BF50B04
:1021C000661F771F881F991F1A9469F7609570958D
:1021D000809590959B01AC01BD01CF010895EE0F54
:1021E000FF1F0590F491E02D09945058BB27AA27B2
:1021F0000E940D110C9463100E94551038F00E943B
:102200005C1020F039F49F3F19F426F40C9452101E
:102210000EF4E095E7FB0C944C10E92F0E9474102B
:1022200058F3BA17620773078407950720F079F40B
:10223000A6F50C9496100EF4E0950B2EBA2FA02D57
:102240000B01B90190010C01CA01A0011124FF2763
:10225000591B99F0593F50F4503E68F11A16F0405E
:10226000A22F232F342F4427585FF3CF469537955D
:102270002795A795F0405395C9F77EF41F16BA0B22
:10228000620B730B840BBAF09150A1F0FF0FBB1FD0
:10229000661F771F881FC2F70EC0BA0F621F731F19
:1022A000841F48F4879577956795B795F7959E3F76
:1022B00008F0B0CF9395880F08F09927EE0F979507
:1022C000879508950E947C1088F09F5798F0B92F49
:1022D0009927B751B0F0E1F0660F771F881F991F5B
:1022E0001AF0BA95C9F714C0B13091F00E94961057
:1022F000B1E008950C949610672F782F8827B85F67
:1023000039F0B93FCCF3869577956795B395D9F7B2
:102310003EF490958095709561957F4F8F4F9F4FBC
:1023200008950E94BB0F08F48FEF08950E94BB0F21
:10233000880B990B089581E090E0F8940C94A0111B
:04234000F894FFCF3F
:10234400FFFF6E0000484201030206040C08090066
:1023540000000049011C011A02F00014010001F1FF
:1023640000000000008602EF011D02D3024E022C81
:102374000240020D0A006E616E00696E66006F769F
:022384006600F1
:00000001FF
