:100000000C9492000C94BA000C94BA000C94BA00B0
:100010000C94BA000C94BA000C94BA000C94BA0078
:100020000C94BA000C94BA000C94BA000C94BA0068
:100030000C94BA000C94BA000C94BA000C94BA0058
:100040000C94FD040C94BA000C946D050C944705B7
:100050000C94BA000C94BA000C94BA000C94BA0038
:100060000C94C3020C94BA00252020636174617360
:1000700074726F7068653A2000C2B043200025207A
:1000800020547269676765722054656D706572618E
:10009000747572653A2000C2B043200025202050BC
:1000A00065616B2054656D70657261747572653A37
:1000B0002000C2B043200025202054656D70657279
:1000C00061747572653A200000000000240027006A
:1000D0002A0000000000250028002B000000000876
:1000E00000020100000304070000000000000000FF
:1000F0000000000023002600290004040404040476
:1001000004040202020202020303030303030102C6
:100110000408102040800102040810200102040895
:1001200010204C0E11241FBECFEFD8E0DEBFCDBF94
:1001300023E0A2E4B1E001C01D92AF34B207E1F7C1
:1001400011E0A0E0B1E0E2EEF2E202C005900D9213
:10015000A234B107D9F710E0C2E9D0E004C021977A
:10016000FE010E94BE10C139D107C9F70E94F50AED
:100170000C946F110C94000085ED8093BC0080916D
:10018000BC0084FDFCCF1092E401089540917701FA
:10019000262F30E0240F311D21323105DCF420916F
:1001A000E4012430C9F4FC0180E090E0861758F4A3
:1001B000309177012191DC01AB5ABE4FA30FB11DE5
:1001C0002C930196F3CF80917701680F60937701AC
:1001D00080E0089581E0089582E0089508950895EB
:1001E0000895E0919D0180919C01E81730F4F0E0C2
:1001F000E256FE4F808190E008958FEF9FEF0895C3
:1002000090919D0180919C01981750F4E92FF0E0A6
:10021000E256FE4F208130E09F5F90939D0102C027
:100220002FEF3FEFC901089580919C0190E020914C
:100230009D01821B91090895CF92DF92EF92FF9268
:100240000F931F93CF93DF937C01CB018A01209101
:10025000E501222389F0EB016B01C40ED51ECC15FC
:10026000DD0569F06991D701ED91FC910190F08174
:10027000E02DC7010995F3CF642F0E94C600C80185
:10028000DF91CF911F910F91FF90EF90DF90CF9072
:100290000895CF93DF931F92CDB7DEB76983209186
:1002A000E5012223D1F020910802203240F021E024
:1002B00030E0FC013383228380E090E015C0809120
:1002C000E601E82FF0E0E951FE4F998190838F5FBE
:1002D0008093E6018093080205C061E0CE0101969B
:1002E0000E94C60081E090E00F90DF91CF910895C9
:1002F0003FB7F8948091510190915201A091530120
:10030000B091540126B5A89B05C02F3F19F0019666
:10031000A11DB11D3FBFBA2FA92F982F8827820F8B
:10032000911DA11DB11DBC01CD0142E0660F771FDB
:10033000881F991F4A95D1F70895CF92DF92EF92C7
:10034000FF920F931F93CF93DF936C017A018B0180
:10035000C0E0D0E0CE15DF0581F0D8016D918D01B0
:10036000D601ED91FC910190F081E02DC601099537
:10037000892B11F02196EECF7E01C701DF91CF913D
:100380001F910F91FF90EF90DF90CF900895089507
:1003900080E090E00895FC01538D448D252F30E0DE
:1003A000842F90E0821B930B541710F0CF96089582
:1003B00001970895FC01918D828D981761F0828DCF
:1003C000DF01A80FB11D5D968C91928D9F5F9F7389
:1003D000928F90E008958FEF9FEF0895FC01918D2B
:1003E000828D981731F0828DE80FF11D858D90E098
:1003F00008958FEF9FEF0895FC01918D228D892F35
:1004000090E0805C9F4F821B91098F73992708951C
:1004100085E192E00E94FC0121E0892B09F420E0B3
:10042000822F0895FC01848DDF01A80FB11DA35A0E
:10043000BF4F2C91848D90E001968F739927848F04
:10044000A689B7892C93A089B1898C918370806427
:100450008C93938D848D981306C00288F389E02DC8
:1004600080818F7D80830895EF92FF920F931F9379
:10047000CF93DF93EC0181E0888F9B8D8C8D981357
:1004800005C0E889F989808185FD26C0F62E0B8D8F
:1004900010E00F5F1F4F0F731127E02E8C8DE812B5
:1004A0000CC00FB607FCFACFE889F989808185FF77
:1004B000F5CFCE010E941202F1CF8B8DFE01E80F25
:1004C000F11DE35AFF4FF0829FB7F8940B8FEA8932
:1004D000FB89808180620AC09FB7F894EE89FF890A
:1004E0006083E889F98980818370806480839FBFFD
:1004F00081E090E0DF91CF911F910F91FF90EF90FD
:100500000895CF93DF93EC01888D8823C9F0EA89A1
:10051000FB89808185FD05C0A889B9898C9186FDFC
:100520000FC00FB607FCF5CF808185FFF2CFA889F9
:10053000B9898C9185FFEDCFCE010E941202E7CFE1
:10054000DF91CF91089580E090E0892B29F00E94FF
:10055000080281110C94000008950E946A111F93F3
:10056000CF93DF93EC01162F0E946C10181739F00F
:10057000612FCE01DF91CF911F910C947410DF9108
:10058000CF911F9108951F920F920FB60F921124D1
:100590002F933F934F935F936F937F938F939F938B
:1005A000AF93BF93EF93FF938091B900887F80361C
:1005B00009F49CC068F5883209F45BC090F480317E
:1005C00009F454C038F4882309F4F6C0883009F4DB
:1005D0004DC0F6C0883109F44CC0803209F45DC0CA
:1005E000EFC0803409F468C048F4803309F455C082
:1005F000883309F0E5C08093E201D8C0803509F462
:100600004FC0883509F45DC0883409F0D9C0D6C020
:10061000883909F4C7C0A8F4883709F467C038F4EA
:10062000883609F463C0803709F460C0C9C08838CF
:1006300009F4B8C0803909F45FC0803809F0C0C03F
:100640005BC0803B09F486C038F4803A09F466C088
:10065000883A09F47FC0B4C0803C09F4A7C0883C44
:1006600009F4A4C0883B09F48AC0AAC08091BF01E4
:1006700010C09091E1018091E001981770F5E09130
:10068000E10181E08E0F8093E101F0E0E054FE4F44
:1006900080818093BB0085EC86C08093E2018EC090
:1006A000E091E10181E08E0F8093E1018091BB0038
:1006B000F0E0E054FE4F80839091E1018091E001F1
:1006C0006EC0E091E10181E08E0F8093E1018091A5
:1006D000BB00F0E0E054FE4F80838091E301811184
:1006E0006DC081E08093BE0184EA61C083E08093A5
:1006F000E40110929B01CFCF80919B01803208F0E2
:1007000051C0E0919B0181E08E0F80939B0180910D
:10071000BB00F0E0E558FE4F8083BDCF85EC8093B1
:10072000BC001092E40180919B01803230F4E09192
:100730009B01F0E0E558FE4F108260919B0170E054
:10074000E0917901F0917A018BE791E0099510929F
:100750009B0136C084E08093E401109278011092EE
:100760007701E0917501F09176010995809177010B
:10077000811105C081E08093770110925501E091CD
:10078000780181E08E0F80937801F0E0EB5AFE4F04
:1007900080818093BB0090917801809177019817B8
:1007A00008F479CF85E88093BC000AC085EC80937B
:1007B000BC001092E40104C01092E2010E94BC004F
:1007C000FF91EF91BF91AF919F918F917F916F9129
:1007D0005F914F913F912F910F900FBE0F901F90FF
:1007E0001895833081F028F4813099F08230A1F09F
:1007F00008958730A9F08830B9F08430D1F4809121
:1008000080008F7D03C0809180008F77809380006F
:10081000089584B58F7702C084B58F7D84BD089517
:100820008091B0008F7703C08091B0008F7D80935E
:10083000B00008951F93CF93DF93282F30E0F90184
:10084000E452FF4F8491F901E25FFE4FD491F90128
:10085000E650FF4FC491CC23C1F0162F81110E94A6
:10086000F103EC2FF0E0EE0FFF1FEE52FF4FA591CA
:10087000B4919FB7F894111104C08C91D095D823EE
:1008800002C0EC91DE2BDC939FBFDF91CF911F91D3
:10089000089510929D0110929C011092E601109211
:1008A00008021092E40181E08093E3011092BE01FE
:1008B00061E082E10E941A0461E083E10E941A046F
:1008C000E9EBF0E080818E7F808380818D7F808363
:1008D00088E48093B80085E48093BC008EEE90E0BD
:1008E00090937601809375018FEE90E090937A015A
:1008F000809379010895CF93DF9390E0FC01E25F4C
:10090000FE4F2491FC01E650FF4F8491882361F152
:1009100090E0880F991FFC01E853FF4FC591D491D7
:10092000FC01EE52FF4FA591B491611109C09FB730
:10093000F8948881209582238883EC912E230BC024
:10094000623061F49FB7F8948881322F3095832309
:100950008883EC912E2B2C939FBF06C08FB7F89401
:10096000E8812E2B28838FBFDF91CF9108958F923E
:100970009F92AF92BF92CF92DF92EF92FF926B0164
:100980007C010E9478014B015C01C114D104E10497
:10099000F104F1F00E947801DC01CB01881999097A
:1009A000AA09BB09883E9340A105B10570F321E077
:1009B000C21AD108E108F10888EE880E83E0981E7B
:1009C000A11CB11CC114D104E104F10419F7DDCF5D
:1009D000FF90EF90DF90CF90BF90AF909F908F905F
:1009E00008952FB7F89460914D0170914E01809158
:1009F0004F01909150012FBF08951F920F920FB693
:100A00000F9211242F933F938F939F93AF93BF9394
:100A100080914D0190914E01A0914F01B0915001F4
:100A200030914C0123E0230F2D3720F40196A11DB6
:100A3000B11D05C026E8230F0296A11DB11D20930C
:100A40004C0180934D0190934E01A0934F01B093C0
:100A500050018091510190915201A0915301B091A8
:100A600054010196A11DB11D809351019093520133
:100A7000A0935301B0935401BF91AF919F918F9177
:100A80003F912F910F900FBE0F901F9018951F92BE
:100A90000F920FB60F9211242F933F934F935F93B2
:100AA0006F937F938F939F93AF93BF93EF93FF9336
:100AB00085E192E00E941202FF91EF91BF91AF9108
:100AC0009F918F917F916F915F914F913F912F9166
:100AD0000F900FBE0F901F9018951F920F920FB698
:100AE0000F9211242F938F939F93EF93FF93E09195
:100AF0002502F09126028081E0912B02F0912C02D8
:100B000082FD12C0908180912E028F5F8F732091A1
:100B10002F02821751F0E0912E02F0E0EB5EFD4FC4
:100B2000958F80932E0201C08081FF91EF919F915C
:100B30008F912F910F900FBE0F901F901895CF930C
:100B4000C42FFC01808191E09093E501809307021E
:100B50001092E6011092080289E092E00E94490199
:100B60006C2F89E092E00E94490181E0CF910C94C2
:100B7000E9070F931F93CF93DF93042FD52F122FE5
:100B8000C32FFC01808191E09093E50180930702DF
:100B90001092E60110920802F4E06F9FB001112458
:100BA0006A5F7F4F89E092E00E944901802F9D2F6C
:100BB0000E9445088D2F90E00E944508812F9C2FB0
:100BC0000E9445088C2F90E00E94450881E0DF914B
:100BD000CF911F910F910C94E90720E030E040E0A5
:100BE00050E0CD960C94B9059A01CD96211540E1BF
:100BF000340728F020E030E040E050E102C040E05F
:100C000050E00C94B905CF93DF93EC016D818D8595
:100C10009E850E94ED056E818D859E850E94ED0565
:100C200068858D859E850E94ED0569858D859E85EB
:100C30000E94ED0540E050E06C818D859E850E940C
:100C4000F40540E050E06F818D859E85DF91CF9166
:100C50000C94F405CF92DF92EF92FF92CF93DF9343
:100C6000B0914303882311F0AB2F01C0A0E0809125
:100C7000440390E0880F991F80519F4FC090490313
:100C8000D0904A03E0904B03F0904C0320E030E01A
:100C9000FC01C591D491E881EB23A90160E070E0EB
:100CA000EA130CC02F5F3F4F4C155D056E057F05A5
:100CB00078F33FEF2FEF8FEF9FEF03C0322F252FF9
:100CC000CB01632F722FDF91CF91FF90EF90DF90D8
:100CD000CF900895CF92DF92EF92FF92CF938091C1
:100CE00042038C3009F446C018F48B30D1F062C056
:100CF0008551823008F05EC0C0913E036C2F6F7743
:100D000070E0762F662780913F03682B80E090E0AB
:100D10000E944D0F2DEC3CEC4CEC5DE30E94AE0FBD
:100D200045C060913E0370E080E090E00E944D0F6E
:100D30006B017C01C0913F03C7FF0AC09B01AC015E
:100D400060E070E080E89FEB0E94C4106B017C01C2
:100D50006C2F6F7070E080E090E00E944F0F2DECE0
:100D60003CEC4CEC5DE30E94AE0FA70196010E94A3
:100D7000C51024C0C0913E036C2F70E080E090E06D
:100D80000E944D0F6B017C0160913F036F7070E01A
:100D900080E090E00E944F0F2DEC3CEC4CEC5DE3CA
:100DA0000E94AE0FA70196010E94C510C7FF06C0A2
:100DB000905804C060E070E080EC9FE7CF91FF9016
:100DC000EF90DF90CF900895CF92DF92EF92FF9255
:100DD0000F931F93CF93DF93CDB7DEB7C054D140AD
:100DE0000FB6F894DEBF0FBECDBF0E94F104009194
:100DF00045031091460320914703309148036B014E
:100E00007C01C01AD10AE20AF30A40EDC41647E099
:100E1000D406E104F10418F480914D03CAC0609334
:100E200045037093460380934703909348031092C1
:100E3000400310923F0310923E0310923D03109224
:100E40003C0362E0809141030E947B0461E070E01A
:100E500080E090E00E94B70461E0809141030E942D
:100E60007B0460E0809141030E941A048091420358
:100E70008551823028F48BE291E10197F1F706C0A9
:100E800064E170E080E090E00E94B70462E080914D
:100E900041030E947B0480914E0390E082309105D3
:100EA00038F0880F991F880F991F05970197F1F760
:100EB000F89480E00E942A066F3F7F4F8F4F9F4F2C
:100EC00021F410924D03789441C081E00E942A06DB
:100ED0006F3F7F4F8F4F9F4FA1F38E010F5F1F4FCB
:100EE0006E012FEBC21A2EEFD20A780180E00E9429
:100EF0002A06F701608371838283938381E00E94D5
:100F00002A06F7016483758386839783F8E0EF0EE2
:100F1000F11CEC14FD0451F7789420E030E0F80166
:100F2000C080D180E280F3804481558166817781E1
:100F3000FFEFCF16DF06EF06FF0631F04F3F8FEFD2
:100F400058076807780721F410924D0380E031C0FC
:100F5000F90183E0F595E7958A95E1F7E45CFC4FAC
:100F60008081880FC416D506E606F70608F481606E
:100F700080832F5F3F4F085F1F4F2832310579F67E
:100F80002091400330E040913C0380913D0390E08C
:100F9000840F911D40913E03840F911D40913F03AA
:100FA000840F911D99272817390771F681E08093E6
:100FB0004D03C05CDE4F0FB6F894DEBF0FBECDBF51
:100FC000DF91CF911F910F91FF90EF90DF90CF9025
:100FD0000895282F30910802313208F04AC08091DC
:100FE000E4018111FCCF9091070242E04093E401BB
:100FF0002093E3012FEF2093E2011092E10130935F
:10100000E001E7EEF1E0A0ECB1E020E0321721F0E2
:1010100041914D932F5FFACF1092BF012091BF01F4
:10102000990F922B9093BF019091BE01913061F482
:101030001092BE019091BF019093BB009091BC00B3
:1010400093FDF8CF95EC01C095EE9093BC00909184
:10105000E4019230E1F39091E2019F3F79F08091B9
:10106000E201803241F08091E201803331F084E08E
:1010700005C081E003C082E001C083E01092E60178
:10108000109208021092E5010895682F89E092E01D
:101090000C9449010F931F93CF93DF938C0189E048
:1010A00092E0F801918380830E944904E801ED9663
:1010B00089E092E00E94490440E060E0CE010E9495
:1010C0009F0580E496E0F8019483838385AD91E0E9
:1010D0009093E501809307021092E60110920802B6
:1010E00060E089E092E00E94490181E00E94E90706
:1010F000F80185AD9091E4019111FCCF91E09093BE
:10110000E4019093E3012FEF2093E2011092E101BB
:101110001092E0019093BF019091BF01880F892B3D
:101120008093BF018091BE01813061F41092BE01B5
:101130008091BF018093BB008091BC0083FDF8CFFC
:1011400085EC01C085EE8093BC008091E401813084
:10115000E1F38091E101811103C09091E10101C0AF
:1011600091E0E0ECF1E0AEE9B1E080E0891721F038
:1011700021912D938F5FFACF10929D0180939C0156
:1011800089E092E00E940001182F482F4F764061BD
:1011900060E0CE010E949F0543E06EEFCE010E9409
:1011A0009F05412F60E0CE010E949F0565E070E041
:1011B00080E090E00E94B704412F416A60E0CE01D8
:1011C0000E949F0510E020E030E040E050E0612FF9
:1011D000CE010E94B9051F5F1031A9F7DF91CF91B1
:1011E0001F910F9108951F93CF93DF93EC018C858E
:1011F000613011F4885F01C088508C878C858F73B3
:101200008C8740EF5FE06C818D859E850E94F405A0
:1012100040EF5FE06F818D859E850E94F405EC852F
:10122000E695E695E695E83028F4F0E0E95FFE4FB4
:10123000108101C010E08D859E8510FF09C020E05F
:1012400030E040E050E16E81CD960E94B90503C0C8
:101250006E810E94ED058D859E8511FF09C020E0FD
:1012600030E040E050E16885CD960E94B90503C0AA
:1012700068850E94ED058D859E8512FF09C020E0DE
:1012800030E040E050E16D81CD960E94B90503C089
:101290006D810E94ED058D859E8513FF09C020E0BC
:1012A00030E040E050E16985CD960E94B90503C069
:1012B00069850E94ED058C85DF91CF911F9108957E
:1012C000CF93DF93E2EEF0E08491E4E1F1E0D4919A
:1012D000E0E0F1E0C491CC2391F081110E94F10390
:1012E000EC2FF0E0EE0FFF1FE051FF4FA591B491FE
:1012F000EC91ED2381E090E021F480E002C080E0F9
:1013000090E0DF91CF910895009769F0FC01019082
:101310000020E9F73197AF01481B590BBC0185E16B
:1013200092E00C949D0180E090E008958F929F924E
:10133000AF92BF920F931F93CF93DF93CDB7DEB7DA
:10134000A1970FB6F894DEBF0FBECDBF19A24230F1
:1013500008F44AE08E010F5D1F4F842E912CA12CC2
:10136000B12CA50194010E949C10E62FB901CA017D
:1013700001501109EA3014F4E05D01C0E95CD801C4
:10138000EC93232B242B252B61F7C8010E948409A1
:10139000A1960FB6F894DEBF0FBECDBFDF91CF91FF
:1013A0001F910F91BF90AF909F908F9008950F93D2
:1013B0001F93CF93DF938C01C0E0D0E0F801EC0FD6
:1013C000FD1F6491662341F085E192E00E943402A2
:1013D000892B11F02196F2CFCE01DF91CF911F9191
:1013E0000F9108954F925F926F927F928F929F928A
:1013F000AF92BF92CF92DF92EF92FF926B017C018E
:101400009B01AC010E946511882319F086E391E0ED
:1014100027C046015701E894B7F82FEF3FEF4FE799
:101420005FE7C501B4010E94651181110DC02FEF66
:101430003FEF4FE75FE7C501B4010E94480F181660
:101440001CF48AE391E00CC02FEF3FEF4FE75FE41D
:10145000C701B6010E946011181684F48EE391E072
:10146000FF90EF90DF90CF90BF90AF909F908F90C4
:101470007F906F905F904F900C9484092FEF3FEF17
:101480004FE75FECC701B6010E94480F87FDE6CF2A
:1014900020E030E0A901C701B6010E94480F87FF94
:1014A0000BC06DE285E192E00E9434025C01F7FA24
:1014B000F094F7F8F09402C0A12CB12C2AE037ED9B
:1014C00043EA5BE3C701B6010E94C5102B013C0152
:1014D0000E9431116B017C010E944D0F9B01AC01F8
:1014E000C301B2010E94C4102B013C014AE0C701B4
:1014F000B6010E9496097C01EA0CFB1C6EE285E1B4
:1015000092E00E943402E80EF91E20E030E040E252
:1015100051E4C301B2010E94AE0F2B013C010E94B5
:1015200031114B01A12CB12C4AE0C501B4010E943C
:101530009609E80EF91EC501B4010E944D0F9B01EA
:10154000AC01C301B2010E94C41020E030E040E2CF
:1015500051E40E94AE0F0E94311180E090E04AE019
:101560000E9496098E0D9F1DFF90EF90DF90CF9007
:10157000BF90AF909F908F907F906F905F904F90B3
:1015800008950F931F930E94F10460931D027093BE
:101590001E0280931F029093200285E192E00E9438
:1015A000EE0197FF1FC00E94F10400911D021091EF
:1015B0001E0220911F0230912002DC01CB01801B12
:1015C000910BA20BB30B0091190210911A022091FA
:1015D0001B0230911C0280179107A207B307E8F2A3
:1015E0008FEF9FEF1F910F910895789484B58260DB
:1015F00084BD84B5816084BD85B5826085BD85B5B7
:10160000816085BD80916E00816080936E00109234
:1016100081008091810082608093810080918100AF
:101620008160809381008091800081608093800040
:101630008091B10084608093B1008091B00081609E
:101640008093B00080917A00846080937A008091CA
:101650007A00826080937A0080917A008160809322
:101660007A0080917A00806880937A001092C1009D
:10167000E0912502F091260282E08083E091210230
:10168000F09122021082E0912302F091240280E185
:10169000808310922D02E0912902F0912A0286E0C7
:1016A0008083E0912702F09128028081806180830D
:1016B000E0912702F0912802808188608083E09188
:1016C0002702F0912802808180688083E0912702C0
:1016D000F091280280818F7D80838EEF92E00E94BE
:1016E0004A0880EC92E00E944A08C091BE02D09164
:1016F000BF022A853B85A8ECB0E00E948D109B01BB
:10170000AC01C12C97E8D92E93E9E92E93E0F92E8C
:10171000C701B6010E949C10288339834A835B83EA
:10172000C091BC02D091BD022A853B85A8ECB0E0F7
:101730000E948D109B01AC01C701B6010E949C1054
:10174000288339834A835B8361E082E00E947B04C3
:1017500061E083E00E947B0461E084E00E947B04FE
:1017600061E082E00E941A0461E083E00E941A04B2
:1017700060E084E00E941A0460E086E00E947B043E
:1017800062E0809141030E947B040E94F104DC012D
:10179000CB01805D9740A109B109809345039093E7
:1017A0004603A0934703B093480387E380934E0317
:1017B000882483942EE6922EC2E0D0E001E010E06F
:1017C00033E0A32EB12C0E94F1046B017C018091C7
:1017D000B2029091B302092E000CAA0BBB0BC816E3
:1017E000D906EA06FB06D9F00E94F104C090B202C5
:1017F000D090B3020D2C000CEE08FF08DC01CB01E9
:101800008C199D09AE09BF09813D9740A105B1051D
:1018100008F450C080914B0181114CC010C00E944F
:10182000F104A7019601261B370B480B590BDA016F
:10183000C901813D9740A105B10560F73BC080918A
:10184000490190914A01892BA9F50E94E406882359
:1018500009F4BDC10E946A066B017C01C092B4020A
:10186000D092B502E092B602F092B702A7019601BB
:101870006091450170914601809147019091480126
:101880000E94480F87FF08C0C0924501D0924601D0
:10189000E0924701F0924801A7019601609103018F
:1018A0007091040180910501909106010E94480FFA
:1018B00087FD7EC185E192E00E94FC010297F4F071
:1018C00085E192E00E94DA018093020185E192E0D5
:1018D0000E94DA010E94C10AFC0197FD08C08D3206
:1018E000910509F47BC1C0970A9780F777C1C12C95
:1018F000D12C7601D0920101C092000180910201A9
:10190000833669F41092BB021092BA021092B902A7
:101910001092B80260E080E090E00E94AF028091F7
:101920000201823721F480924B0190920201809152
:1019300002018D3661F46091000180910101609394
:10194000B8028093B90280E090E00E94AF028091DB
:101950004B01882309F45DC08091420190914301BD
:101960008130910599F11CF4892B39F095C08230B2
:101970009105D9F10397C9F18FC00E9460090197C1
:1019800001F562E08091BE029091BF020E94F308CF
:1019900062E08091BC029091BD020E94F3088091A8
:1019A000BA029091BB0201979093BB028093BA0256
:1019B00088379C4E0CF070C0B0924301A092420157
:1019C0006BC0109343010093420166C00E946009FE
:1019D000892B31F461E08091BE029091BF022FC04B
:1019E000D0934301C093420157C010924B01109213
:1019F000BB021092BA021092B9021092B80260E0D3
:101A000080E090E00E94AF021092430110924201E8
:101A100043C02091B8023091B9028091BA029091EE
:101A2000BB02281B390B30934A0120934901809156
:101A3000BE029091BF021216130684F461E00E9468
:101A4000F30861E08091BC029091BD020E94F3080E
:101A50008091BA029091BB02019611C0232BA1F094
:101A600062E00E94F30862E08091BC029091BD02A6
:101A70000E94F3088091BA029091BB020197909363
:101A8000BB028093BA0208C00E9403068091BC0288
:101A90009091BD020E940306809102018C36E1F410
:101AA0008091000190910101009731F461E082E0A2
:101AB0000E941A0461E00CC08130910529F460E0B5
:101AC00082E00E941A0453C0029709F06EC060E0E1
:101AD00083E00E941A0469C0843709F048C087EB8C
:101AE00090E00E94D7096091B4027091B502809194
:101AF000B6029091B7020E94F20982EB90E00E9438
:101B0000D7098CE990E00E94D70960914501709156
:101B1000460180914701909148010E94F20987E9AE
:101B200090E00E94D7098EE790E00E94D70960916B
:101B300003017091040180910501909106010E94BA
:101B4000F20989E790E00E94D70988E690E00E94B8
:101B5000D7096091440170E080E090E04AE00E9483
:101B6000960983E391E00E9484099092020180919A
:101B700002018337D1F41092440160E084E00E94B6
:101B80001A046091000170910101072E000C880B6E
:101B9000990B0E944F0F609303017093040180938F
:101BA000050190930601909202010E94A3020BCEC0
:101BB000A7019601C701B6010E94651181117ACE75
:101BC0008092440161E084E00E941A0473CEC12C2B
:101BD000D12C80ECE82E8FE7F82E40CEC12CD12CF2
:101BE0007601712CE130F105E9F0ED32F105C1F03B
:101BF000CF01C0970A97B0F4AAE0B0E0A701960120
:101C00000E9482106F01FF0FEE08FF08C60ED71E5C
:101C1000E81EF91E40E3C41AD108E108F10802C029
:101C20007724739485E192E00E94DA010E94C10A50
:101C3000FC01C0970A97B0F2E130F10599F27720E4
:101C400009F458CEF094E094D094C094C11CD11CF7
:101C5000E11CF11C4FCEFC01DC0115964D9614964B
:101C60001C921E92139715961C92159712961C9211
:101C7000129711961C9211971C921696A817B907E5
:101C800071F711A614A610A617A211AE14AE10AECD
:101C900017AA628365AF0895CF9310920C02109239
:101CA0000B0288EE93E0A0E0B0E080930D029093E9
:101CB0000E02A0930F02B093100223E131E03093A3
:101CC0000A022093090210921802109217028093C0
:101CD000190290931A02A0931B02B0931C0285E292
:101CE00091E0909316028093150285EC90E090931A
:101CF00022028093210284EC90E09093240280934E
:101D0000230280EC90E0909326028093250281ECE0
:101D100090E0909328028093270282EC90E09093C9
:101D20002A028093290286EC90E090932C02809303
:101D30002B0210922E0210922F021092300210925B
:101D40003102C8E0C093410386E180934203E6E19B
:101D5000F1E0E491E0934303E2E0F1E0E491E09309
:101D6000440380E89EE3A0E0B0E0809349039093B1
:101D70004A03A0934B03B0934C0360E68EEF92E0CE
:101D80000E942B0E61E680EC92E00E942B0E809167
:101D90002A0381111FC010922A0388EC90E09093CF
:101DA0002603809325038EEF92E09093290380937E
:101DB0002803C0931F038DE0809322038AE0809361
:101DC000200389E0809321038BE0809323038CE040
:101DD000809324038BE193E09093BF028093BE0233
:101DE00080913A03811121C081E080933A0388EC0D
:101DF00090E090933603809335038EEF92E09093BA
:101E000039038093380382E080932F0387E0809327
:101E1000320384E08093300383E08093310385E0D4
:101E20008093330386E0809334038BE293E09093B6
:101E3000BD028093BC0280E090E00E946C1090E0B4
:101E40009093BB028093BA0280E090E00E946C10F5
:101E500090E09093B9028093B8020E94E406882330
:101E600019F00E946A0604C060E070E080EC9FE711
:101E70006093B4027093B5028093B6029093B70258
:101E80000E94F1047093B3026093B202CF9108955F
:101E90000E948A0F08F481E00895E89409C097FB36
:101EA0003EF490958095709561957F4F8F4F9F4F31
:101EB0009923A9F0F92F96E9BB279395F695879575
:101EC00077956795B795F111F8CFFAF4BB0F11F438
:101ED00060FF1BC06F5F7F4F8F4F9F4F16C08823DF
:101EE00011F096E911C0772321F09EE8872F762F15
:101EF00005C0662371F096E8862F70E060E02AF056
:101F00009A95660F771F881FDAF7880F9695879541
:101F100097F90895990F0008550FAA0BE0E8FEEF16
:101F200016161706E807F907C0F012161306E4079D
:101F3000F50798F0621B730B840B950B39F40A2696
:101F400061F0232B242B252B21F408950A2609F474
:101F5000A140A6958FEF811D811D08950E94C10F9C
:101F60000C9432100E94241038F00E942B1020F0A4
:101F7000952311F00C941B100C94211011240C9437
:101F800066100E94431070F3959FC1F3950F50E0C7
:101F9000551F629FF001729FBB27F00DB11D639F1B
:101FA000AA27F00DB11DAA1F649F6627B00DA11DC1
:101FB000661F829F2227B00DA11D621F739FB00D67
:101FC000A11D621F839FA00D611D221F749F3327D7
:101FD000A00D611D231F849F600D211D822F762F70
:101FE0006A2F11249F5750409AF0F1F088234AF04D
:101FF000EE0FFF1FBB1F661F771F881F91505040B9
:10200000A9F79E3F510580F00C941B100C946610AC
:102010005F3FE4F3983ED4F3869577956795B7953F
:10202000F795E7959F5FC1F7FE2B880F911D969559
:10203000879597F9089597F99F6780E870E060E0C9
:1020400008959FEF80EC089500240A941616170651
:1020500018060906089500240A9412161306140699
:1020600005060895092E0394000C11F4882352F0FC
:10207000BB0F40F4BF2B11F460FF04C06F5F7F4FB4
:102080008F4F9F4F089557FD9058440F551F59F09B
:102090005F3F71F04795880F97FB991F61F09F3F55
:1020A00079F087950895121613061406551FF2CF7E
:1020B0004695F1DF08C0161617061806991FF1CFCE
:1020C00086957105610508940895E894BB276627F5
:1020D0007727CB0197F90895F999FECF92BD81BD7D
:1020E000F89A992780B50895262FF999FECF1FBA3F
:1020F00092BD81BD20BD0FB6F894FA9AF99A0FBE31
:10210000019608950E948D10A59F900DB49F900D8B
:10211000A49F800D911D11240895A29FB001B39F2B
:10212000C001A39F700D811D1124911DB29F700DE0
:10213000811D1124911D0895A1E21A2EAA1BBB1B1B
:10214000FD010DC0AA1FBB1FEE1FFF1FA217B30783
:10215000E407F50720F0A21BB30BE40BF50B661F99
:10216000771F881F991F1A9469F76095709580955D
:1021700090959B01AC01BD01CF010895EE0FFF1FAB
:102180000590F491E02D09945058BB27AA270E948E
:10219000DC100C9432100E94241038F00E942B1096
:1021A00020F039F49F3F19F426F40C9421100EF41A
:1021B000E095E7FB0C941B10E92F0E94431058F3A5
:1021C000BA17620773078407950720F079F4A6F51C
:1021D0000C9465100EF4E0950B2EBA2FA02D0B0178
:1021E000B90190010C01CA01A0011124FF27591B5C
:1021F00099F0593F50F4503E68F11A16F040A22F62
:10220000232F342F4427585FF3CF469537952795D2
:10221000A795F0405395C9F77EF41F16BA0B620BD1
:10222000730B840BBAF09150A1F0FF0FBB1F661F18
:10223000771F881FC2F70EC0BA0F621F731F841F5B
:1022400048F4879577956795B795F7959E3F08F081
:10225000B0CF9395880F08F09927EE0F9795879543
:1022600008950E944B1088F09F5798F0B92F992736
:10227000B751B0F0E1F0660F771F881F991F1AF071
:10228000BA95C9F714C0B13091F00E946510B1E061
:1022900008950C946510672F782F8827B85F39F060
:1022A000B93FCCF3869577956795B395D9F73EF40A
:1022B00090958095709561957F4F8F4F9F4F0895B2
:1022C0000E948A0F08F48FEF08950E948A0F880BEE
:1022D000990B089581E090E0F8940C946F11F894B4
:0222E000FFCF2E
:1022E200FFFF6E0000484201030206040C080900C9
:1022F20000000049011C01C801F00014010001F1B5
:10230200000000000034029D01CB018102FC01DAD1
:1023120001EE010D0A006E616E00696E66006F7655
:02232200660053
:00000001FF
